{
  "transactions": [
    {
      "hash": "0x54f46d78ffb1501dd7f4543b513ab8c0f87fe921d69935a205c275e3f3ecaa06",
      "transactionType": "CALL",
      "contractName": null,
      "contractAddress": "0x5ded107ecaa8437d19415a3242e43f035c8e56fe",
      "function": "setPeer(uint32,bytes32)",
      "arguments": [
        "40245",
        "0x00000000000000000000000056f96b2d1746774e6215be6b10a48299807a2359"
      ],
      "transaction": {
        "from": "0xfcfd7b87199b8988a8007d37a29a2993602b0525",
        "to": "0x5ded107ecaa8437d19415a3242e43f035c8e56fe",
        "gas": "0x11225",
        "value": "0x0",
        "input": "0x3400288b0000000000000000000000000000000000000000000000000000000000009d3500000000000000000000000056f96b2d1746774e6215be6b10a48299807a2359",
        "nonce": "0x20d",
        "chainId": "0x66eee"
      },
      "additionalContracts": [],
      "isFixedGasLimit": false
    }
  ],
  "receipts": [
    {
      "status": "0x1",
      "cumulativeGasUsed": "0xcb24",
      "logs": [
        {
          "address": "0x5ded107ecaa8437d19415a3242e43f035c8e56fe",
          "topics": [
            "0x238399d427b947898edb290f5ff0f9109849b1c3ba196a42e35f00c50a54b98b"
          ],
          "data": "0x0000000000000000000000000000000000000000000000000000000000009d3500000000000000000000000056f96b2d1746774e6215be6b10a48299807a2359",
          "blockHash": "0x298714697f371ce4f0eb08bbfa7ecc4dbe3cd3b5b769e0650825c7e0c0179f1b",
          "blockNumber": "0x59feea7",
          "transactionHash": "0x54f46d78ffb1501dd7f4543b513ab8c0f87fe921d69935a205c275e3f3ecaa06",
          "transactionIndex": "0x1",
          "logIndex": "0x0",
          "removed": false
        }
      ],
      "logsBloom": "0x00000000000000000000000000000000000000000000000000000000000000000000000000000000000000000000000000000000000000000800010000000000000000000000000000000000000000000000000000000000000000000000000000000000000000000000000000000000000000000000000000000000000000000000000000000000000000000000000000000000000000000000002000000000000000000000000000000000000000000000000000000000000002000000000000000000000000000000000000000000000000000000000008040000000000000000000000000000000000000000000000000000000000000000000000000000",
      "type": "0x2",
      "transactionHash": "0x54f46d78ffb1501dd7f4543b513ab8c0f87fe921d69935a205c275e3f3ecaa06",
      "transactionIndex": "0x1",
      "blockHash": "0x298714697f371ce4f0eb08bbfa7ecc4dbe3cd3b5b769e0650825c7e0c0179f1b",
      "blockNumber": "0x59feea7",
      "gasUsed": "0xcb24",
      "effectiveGasPrice": "0x5f5e100",
      "from": "0xfcfd7b87199b8988a8007d37a29a2993602b0525",
      "to": "0x5ded107ecaa8437d19415a3242e43f035c8e56fe",
      "contractAddress": null,
      "gasUsedForL1": "0x10f3",
      "l1BlockNumber": "0x6afc08"
    }
  ],
  "libraries": [],
  "pending": [],
  "returns": {},
  "timestamp": 1730739172,
  "chain": 421614,
  "commit": "8c66442"
}