{
  "transactions": [
    {
      "hash": "0xd2df5974535134a33a0f8be0a6a42178303ca2e1cf35e07d2f3ff88933da8428",
      "transactionType": "CALL",
      "contractName": null,
      "contractAddress": "0x56f96b2d1746774e6215be6b10a48299807a2359",
      "function": "setPeer(uint32,bytes32)",
      "arguments": [
        "40231",
        "0x0000000000000000000000005ded107ecaa8437d19415a3242e43f035c8e56fe"
      ],
      "transaction": {
        "from": "0xfcfd7b87199b8988a8007d37a29a2993602b0525",
        "to": "0x56f96b2d1746774e6215be6b10a48299807a2359",
        "gas": "0x1104d",
        "value": "0x0",
        "input": "0x3400288b0000000000000000000000000000000000000000000000000000000000009d270000000000000000000000005ded107ecaa8437d19415a3242e43f035c8e56fe",
        "nonce": "0x4a",
        "chainId": "0x14a34"
      },
      "additionalContracts": [],
      "isFixedGasLimit": false
    }
  ],
  "receipts": [
    {
      "status": "0x1",
      "cumulativeGasUsed": "0xda241",
      "logs": [
        {
          "address": "0x56f96b2d1746774e6215be6b10a48299807a2359",
          "topics": [
            "0x238399d427b947898edb290f5ff0f9109849b1c3ba196a42e35f00c50a54b98b"
          ],
          "data": "0x0000000000000000000000000000000000000000000000000000000000009d270000000000000000000000005ded107ecaa8437d19415a3242e43f035c8e56fe",
          "blockHash": "0x2902288a97b72c2437130802bfffb82414ee3d92f0171c1af9fe91cce52b7259",
          "blockNumber": "0x10acea2",
          "transactionHash": "0xd2df5974535134a33a0f8be0a6a42178303ca2e1cf35e07d2f3ff88933da8428",
          "transactionIndex": "0x4",
          "logIndex": "0x9",
          "removed": false
        }
      ],
      "logsBloom": "0x00000000000000000000000000000000000000000000000000000000000000000000000000000000000800000000000000000000000000000800000000000000000000000000000010000000000000000000000000000000000000000000000000000000000000000000000000000000000000000000000000000000000000000000000000000000000000000000000000000000800000000000000000000000000000000000000000000000000000000000000000000000000002000000000000000000000000000000000000000000000000000000000000040000000000000000000000000000000000000000000000000000000000000000000000000000",
      "type": "0x2",
      "transactionHash": "0xd2df5974535134a33a0f8be0a6a42178303ca2e1cf35e07d2f3ff88933da8428",
      "transactionIndex": "0x4",
      "blockHash": "0x2902288a97b72c2437130802bfffb82414ee3d92f0171c1af9fe91cce52b7259",
      "blockNumber": "0x10acea2",
      "gasUsed": "0xba31",
      "effectiveGasPrice": "0xf48bc",
      "blobGasUsed": "0x0",
      "from": "0xfcfd7b87199b8988a8007d37a29a2993602b0525",
      "to": "0x56f96b2d1746774e6215be6b10a48299807a2359",
      "contractAddress": null,
      "l1BaseFeeScalar": "0x44d",
      "l1BlobBaseFee": "0x1",
      "l1BlobBaseFeeScalar": "0xa118b",
      "l1Fee": "0x33fb10ef8",
      "l1GasPrice": "0x1d81f73c6",
      "l1GasUsed": "0x640"
    }
  ],
  "libraries": [],
  "pending": [],
  "returns": {},
  "timestamp": 1730739242,
  "chain": 84532,
  "commit": "8c66442"
}